{
  "transactions": [
    {
      "hash": "0xf5c44f036a0852fdcd772101e234f754eb431c848398546cf280364b7a51a05f",
      "transactionType": "CALL",
      "contractName": "StorageDeployment",
      "contractAddress": "0xd9003177dc465aaa89e20678675dca7fa5f5cad5",
      "function": "deployStorageContracts(address)",
      "arguments": [
        "0xaBeBC6283d1b32298D67c745da88DAD288A35c06"
      ],
      "transaction": {
        "from": "0xabebc6283d1b32298d67c745da88dad288a35c06",
        "to": "0xd9003177dc465aaa89e20678675dca7fa5f5cad5",
        "gas": "0x73a2",
        "value": "0x0",
        "input": "0x94ca629d000000000000000000000000abebc6283d1b32298d67c745da88dad288a35c06",
        "nonce": "0x87",
        "chainId": "0x106a"
      },
      "additionalContracts": [],
      "isFixedGasLimit": false
    },
    {
      "hash": "0xb9d0c507814ed64596ee30e57479ffebb33b9bfdbe4f10b3943d96464f61c7a2",
      "transactionType": "CALL",
      "contractName": "LogicDeployment",
      "contractAddress": "0x143514cfa5e66ec945bb19a024627c8bde524156",
      "function": "deployLogicImplementations()",
      "arguments": [],
      "transaction": {
        "from": "0xabebc6283d1b32298d67c745da88dad288a35c06",
        "to": "0x143514cfa5e66ec945bb19a024627c8bde524156",
        "gas": "0x71a6",
        "value": "0x0",
        "input": "0xa5d759b3",
        "nonce": "0x88",
        "chainId": "0x106a"
      },
      "additionalContracts": [],
      "isFixedGasLimit": false
    },
    {
      "hash": "0x6dd989bc43d3a6a248df1e426ce2ad6f23be6e54f00ecec91e98cc74780480ee",
      "transactionType": "CALL",
      "contractName": "ProxyDeployment",
      "contractAddress": "0xf03252ff2894637aefc003421b78e82e38b98087",
      "function": "deployProxyAdmin(address)",
      "arguments": [
        "0xaBeBC6283d1b32298D67c745da88DAD288A35c06"
      ],
      "transaction": {
        "from": "0xabebc6283d1b32298d67c745da88dad288a35c06",
        "to": "0xf03252ff2894637aefc003421b78e82e38b98087",
        "gas": "0x73a2",
        "value": "0x0",
        "input": "0x0421eaa8000000000000000000000000abebc6283d1b32298d67c745da88dad288a35c06",
        "nonce": "0x89",
        "chainId": "0x106a"
      },
      "additionalContracts": [],
      "isFixedGasLimit": false
    },
    {
      "hash": "0xb8880f63c180539229a4d6654fc51bee7f57f889e9b02ff9cfb9f585d59edbfa",
      "transactionType": "CALL",
      "contractName": "ProxyDeployment",
      "contractAddress": "0xf03252ff2894637aefc003421b78e82e38b98087",
      "function": "deployNodeProxy(address,address,address,address,address,address)",
      "arguments": [
        "0xaBeBC6283d1b32298D67c745da88DAD288A35c06",
        "0x86875c0affDe5321016e15209eE75Eb9adA1d457",
        "0x014f2A5F99Ef0A46368DCa6FF81358b7f6Ab3f0d",
        "0x3045a515f9B1f95c6af968a4C2a790e6549B8153",
        "0x5c5f160Ca820ecB00E44FA88C580902C50d8cb91",
        "0x35F506F94F26b8c11d009575256DF6746839A913"
      ],
      "transaction": {
        "from": "0xabebc6283d1b32298d67c745da88dad288a35c06",
        "to": "0xf03252ff2894637aefc003421b78e82e38b98087",
        "gas": "0x7d7e",
        "value": "0x0",
        "input": "0xb750af3e000000000000000000000000abebc6283d1b32298d67c745da88dad288a35c0600000000000000000000000086875c0affde5321016e15209ee75eb9ada1d457000000000000000000000000014f2a5f99ef0a46368dca6ff81358b7f6ab3f0d0000000000000000000000003045a515f9b1f95c6af968a4c2a790e6549b81530000000000000000000000005c5f160ca820ecb00e44fa88c580902c50d8cb9100000000000000000000000035f506f94f26b8c11d009575256df6746839a913",
        "nonce": "0x8a",
        "chainId": "0x106a"
      },
      "additionalContracts": [],
      "isFixedGasLimit": false
    },
    {
      "hash": "0x7136f0ab44002bdb45cae8b4a54348fe7bd86375cefd64e6a1421bbafab218b7",
      "transactionType": "CALL",
      "contractName": "ProxyDeployment",
      "contractAddress": "0xf03252ff2894637aefc003421b78e82e38b98087",
      "function": "deployUserProxy(address,address,address,address,address,address)",
      "arguments": [
        "0xaBeBC6283d1b32298D67c745da88DAD288A35c06",
        "0x86875c0affDe5321016e15209eE75Eb9adA1d457",
        "0x014f2A5F99Ef0A46368DCa6FF81358b7f6Ab3f0d",
        "0x3045a515f9B1f95c6af968a4C2a790e6549B8153",
        "0x2d6277981392FDcb6A0099a431366FCE4E9c139e",
        "0x35F506F94F26b8c11d009575256DF6746839A913"
      ],
      "transaction": {
        "from": "0xabebc6283d1b32298d67c745da88dad288a35c06",
        "to": "0xf03252ff2894637aefc003421b78e82e38b98087",
        "gas": "0x7d6f",
        "value": "0x0",
        "input": "0xcb214e44000000000000000000000000abebc6283d1b32298d67c745da88dad288a35c0600000000000000000000000086875c0affde5321016e15209ee75eb9ada1d457000000000000000000000000014f2a5f99ef0a46368dca6ff81358b7f6ab3f0d0000000000000000000000003045a515f9b1f95c6af968a4c2a790e6549b81530000000000000000000000002d6277981392fdcb6a0099a431366fce4e9c139e00000000000000000000000035f506f94f26b8c11d009575256df6746839a913",
        "nonce": "0x8b",
        "chainId": "0x106a"
      },
      "additionalContracts": [],
      "isFixedGasLimit": false
    },
    {
      "hash": "0xc3ecea52eebe6ee34dc21542ac6745f36484af96948c2f50c7a74c6337a24b17",
      "transactionType": "CALL",
      "contractName": "ProxyDeployment",
      "contractAddress": "0xf03252ff2894637aefc003421b78e82e38b98087",
      "function": "deployResourceProxy(address,address,address,address,address,address)",
      "arguments": [
        "0xaBeBC6283d1b32298D67c745da88DAD288A35c06",
        "0x86875c0affDe5321016e15209eE75Eb9adA1d457",
        "0x014f2A5F99Ef0A46368DCa6FF81358b7f6Ab3f0d",
        "0x3045a515f9B1f95c6af968a4C2a790e6549B8153",
        "0x554f7e4843f5d273d91ccE9EE11ED5271e916dc9",
        "0x35F506F94F26b8c11d009575256DF6746839A913"
      ],
      "transaction": {
        "from": "0xabebc6283d1b32298d67c745da88dad288a35c06",
        "to": "0xf03252ff2894637aefc003421b78e82e38b98087",
        "gas": "0x7d7e",
        "value": "0x0",
        "input": "0x7d229120000000000000000000000000abebc6283d1b32298d67c745da88dad288a35c0600000000000000000000000086875c0affde5321016e15209ee75eb9ada1d457000000000000000000000000014f2a5f99ef0a46368dca6ff81358b7f6ab3f0d0000000000000000000000003045a515f9b1f95c6af968a4c2a790e6549b8153000000000000000000000000554f7e4843f5d273d91cce9ee11ed5271e916dc900000000000000000000000035f506f94f26b8c11d009575256df6746839a913",
        "nonce": "0x8c",
        "chainId": "0x106a"
      },
      "additionalContracts": [],
      "isFixedGasLimit": false
    },
    {
      "hash": "0xd12b2a3f892deecb38c656d848f6b3197b52013dddb489cc9a52b2d0099e790c",
      "transactionType": "CALL",
      "contractName": "ProxyDeployment",
      "contractAddress": "0xf03252ff2894637aefc003421b78e82e38b98087",
      "function": "deployFacadeProxy(address,address,address,address,address,address)",
      "arguments": [
        "0xaBeBC6283d1b32298D67c745da88DAD288A35c06",
        "0x010D285126f497cEaBA16B2c3e3B1258a19c1679",
        "0x9B135fB590b5545DD43517142d9B0E44eA222f1d",
        "0xfF1Ef0c1933DA7d90bf5BB6e20ed8e0331ad3e53",
        "0xb4F07975D82BB9440ecE3A91756203ACEe3FB790",
        "0x35F506F94F26b8c11d009575256DF6746839A913"
      ],
      "transaction": {
        "from": "0xabebc6283d1b32298d67c745da88dad288a35c06",
        "to": "0xf03252ff2894637aefc003421b78e82e38b98087",
        "gas": "0x7d7e",
        "value": "0x0",
        "input": "0x9f876448000000000000000000000000abebc6283d1b32298d67c745da88dad288a35c06000000000000000000000000010d285126f497ceaba16b2c3e3b1258a19c16790000000000000000000000009b135fb590b5545dd43517142d9b0e44ea222f1d000000000000000000000000ff1ef0c1933da7d90bf5bb6e20ed8e0331ad3e53000000000000000000000000b4f07975d82bb9440ece3a91756203acee3fb79000000000000000000000000035f506f94f26b8c11d009575256df6746839a913",
        "nonce": "0x8d",
        "chainId": "0x106a"
      },
      "additionalContracts": [],
      "isFixedGasLimit": false
    },
    {
      "hash": "0xaa7526aecbe7778e53e30db042917420bbf862664ee453466007af39ee6a2392",
      "transactionType": "CALL",
      "contractName": "ConfigurationSetup",
      "contractAddress": "0x69429d5a924225a5ed91920e7b396680d679dd2a",
      "function": "setupStorageContracts(address,address,address,address,address,address)",
      "arguments": [
        "0x86875c0affDe5321016e15209eE75Eb9adA1d457",
        "0x014f2A5F99Ef0A46368DCa6FF81358b7f6Ab3f0d",
        "0x3045a515f9B1f95c6af968a4C2a790e6549B8153",
        "0x010D285126f497cEaBA16B2c3e3B1258a19c1679",
        "0x9B135fB590b5545DD43517142d9B0E44eA222f1d",
        "0xfF1Ef0c1933DA7d90bf5BB6e20ed8e0331ad3e53"
      ],
      "transaction": {
        "from": "0xabebc6283d1b32298d67c745da88dad288a35c06",
        "to": "0x69429d5a924225a5ed91920e7b396680d679dd2a",
        "gas": "0x7d8f",
        "value": "0x0",
        "input": "0x7aa3601800000000000000000000000086875c0affde5321016e15209ee75eb9ada1d457000000000000000000000000014f2a5f99ef0a46368dca6ff81358b7f6ab3f0d0000000000000000000000003045a515f9b1f95c6af968a4c2a790e6549b8153000000000000000000000000010d285126f497ceaba16b2c3e3b1258a19c16790000000000000000000000009b135fb590b5545dd43517142d9b0e44ea222f1d000000000000000000000000ff1ef0c1933da7d90bf5bb6e20ed8e0331ad3e53",
        "nonce": "0x8e",
        "chainId": "0x106a"
      },
      "additionalContracts": [],
      "isFixedGasLimit": false
    },
    {
      "hash": "0xa66f04a85b0cee6f84989f20102a4661b5a7544b357030fb018e0d08d6dfabc3",
      "transactionType": "CALL",
      "contractName": "ConfigurationSetup",
      "contractAddress": "0x69429d5a924225a5ed91920e7b396680d679dd2a",
      "function": "setupAccessControl(address,address,address,address)",
      "arguments": [
        "0xaBeBC6283d1b32298D67c745da88DAD288A35c06",
        "0x010D285126f497cEaBA16B2c3e3B1258a19c1679",
        "0x9B135fB590b5545DD43517142d9B0E44eA222f1d",
        "0x114C61A1d7D95340D7ACb83aB9AAe26A5dcAc2AD"
      ],
      "transaction": {
        "from": "0xabebc6283d1b32298d67c745da88dad288a35c06",
        "to": "0x69429d5a924225a5ed91920e7b396680d679dd2a",
        "gas": "0x7997",
        "value": "0x0",
        "input": "0x976161c3000000000000000000000000abebc6283d1b32298d67c745da88dad288a35c06000000000000000000000000010d285126f497ceaba16b2c3e3b1258a19c16790000000000000000000000009b135fb590b5545dd43517142d9b0e44ea222f1d000000000000000000000000114c61a1d7d95340d7acb83ab9aae26a5dcac2ad",
        "nonce": "0x8f",
        "chainId": "0x106a"
      },
      "additionalContracts": [],
      "isFixedGasLimit": false
    }
  ],
  "receipts": [
    {
      "status": "0x1",
      "cumulativeGasUsed": "0x12b44",
      "logs": [],
      "logsBloom": "0x00000000000000000000000000000000000000000000000000000000000000000000000000000000000000000000000000000000000000000000000000000000000000000000000000000000000000000000000000000000000000000000000000000000000000000000000000000000000000000000000000000000000000000000000000000000000000000000000000000000000000000000000000000000000000000000000000000000000000000000000000000000000000000000000000000000000000000000000000000000000000000000000000000000000000000000000000000000000000000000000000000000000000000000000000000000",
      "type": "0x0",
      "transactionHash": "0xf5c44f036a0852fdcd772101e234f754eb431c848398546cf280364b7a51a05f",
      "transactionIndex": "0x1",
      "blockHash": "0xcf01bf3c01c700a2c72e7a05efd9b9d48351899e031a86cdc3e7066fc0c07b4d",
      "blockNumber": "0x15fe684",
      "gasUsed": "0x5640",
      "effectiveGasPrice": "0xf433d",
      "from": "0xabebc6283d1b32298d67c745da88dad288a35c06",
      "to": "0xd9003177dc465aaa89e20678675dca7fa5f5cad5",
      "contractAddress": null,
      "l1BaseFeeScalar": "0x2af8",
      "l1BlobBaseFee": "0x1",
      "l1BlobBaseFeeScalar": "0x109618",
      "l1Fee": "0x56cf38057c",
      "l1GasPrice": "0x4eeaed1be",
      "l1GasUsed": "0x640"
    },
    {
      "status": "0x1",
      "cumulativeGasUsed": "0x17dec",
      "logs": [],
      "logsBloom": "0x00000000000000000000000000000000000000000000000000000000000000000000000000000000000000000000000000000000000000000000000000000000000000000000000000000000000000000000000000000000000000000000000000000000000000000000000000000000000000000000000000000000000000000000000000000000000000000000000000000000000000000000000000000000000000000000000000000000000000000000000000000000000000000000000000000000000000000000000000000000000000000000000000000000000000000000000000000000000000000000000000000000000000000000000000000000",
      "type": "0x0",
      "transactionHash": "0xb9d0c507814ed64596ee30e57479ffebb33b9bfdbe4f10b3943d96464f61c7a2",
      "transactionIndex": "0x2",
      "blockHash": "0xcf01bf3c01c700a2c72e7a05efd9b9d48351899e031a86cdc3e7066fc0c07b4d",
      "blockNumber": "0x15fe684",
      "gasUsed": "0x52a8",
      "effectiveGasPrice": "0xf433d",
      "from": "0xabebc6283d1b32298d67c745da88dad288a35c06",
      "to": "0x143514cfa5e66ec945bb19a024627c8bde524156",
      "contractAddress": null,
      "l1BaseFeeScalar": "0x2af8",
      "l1BlobBaseFee": "0x1",
      "l1BlobBaseFeeScalar": "0x109618",
      "l1Fee": "0x56cf38057c",
      "l1GasPrice": "0x4eeaed1be",
      "l1GasUsed": "0x640"
    },
    {
      "status": "0x1",
      "cumulativeGasUsed": "0x1d42c",
      "logs": [],
      "logsBloom": "0x00000000000000000000000000000000000000000000000000000000000000000000000000000000000000000000000000000000000000000000000000000000000000000000000000000000000000000000000000000000000000000000000000000000000000000000000000000000000000000000000000000000000000000000000000000000000000000000000000000000000000000000000000000000000000000000000000000000000000000000000000000000000000000000000000000000000000000000000000000000000000000000000000000000000000000000000000000000000000000000000000000000000000000000000000000000",
      "type": "0x0",
      "transactionHash": "0x6dd989bc43d3a6a248df1e426ce2ad6f23be6e54f00ecec91e98cc74780480ee",
      "transactionIndex": "0x3",
      "blockHash": "0xcf01bf3c01c700a2c72e7a05efd9b9d48351899e031a86cdc3e7066fc0c07b4d",
      "blockNumber": "0x15fe684",
      "gasUsed": "0x5640",
      "effectiveGasPrice": "0xf433d",
      "from": "0xabebc6283d1b32298d67c745da88dad288a35c06",
      "to": "0xf03252ff2894637aefc003421b78e82e38b98087",
      "contractAddress": null,
      "l1BaseFeeScalar": "0x2af8",
      "l1BlobBaseFee": "0x1",
      "l1BlobBaseFeeScalar": "0x109618",
      "l1Fee": "0x56cf38057c",
      "l1GasPrice": "0x4eeaed1be",
      "l1GasUsed": "0x640"
    },
    {
      "status": "0x1",
      "cumulativeGasUsed": "0x23c46",
      "logs": [],
      "logsBloom": "0x00000000000000000000000000000000000000000000000000000000000000000000000000000000000000000000000000000000000000000000000000000000000000000000000000000000000000000000000000000000000000000000000000000000000000000000000000000000000000000000000000000000000000000000000000000000000000000000000000000000000000000000000000000000000000000000000000000000000000000000000000000000000000000000000000000000000000000000000000000000000000000000000000000000000000000000000000000000000000000000000000000000000000000000000000000000",
      "type": "0x0",
      "transactionHash": "0xb8880f63c180539229a4d6654fc51bee7f57f889e9b02ff9cfb9f585d59edbfa",
      "transactionIndex": "0x4",
      "blockHash": "0xcf01bf3c01c700a2c72e7a05efd9b9d48351899e031a86cdc3e7066fc0c07b4d",
      "blockNumber": "0x15fe684",
      "gasUsed": "0x681a",
      "effectiveGasPrice": "0xf433d",
      "from": "0xabebc6283d1b32298d67c745da88dad288a35c06",
      "to": "0xf03252ff2894637aefc003421b78e82e38b98087",
      "contractAddress": null,
      "l1BaseFeeScalar": "0x2af8",
      "l1BlobBaseFee": "0x1",
      "l1BlobBaseFeeScalar": "0x109618",
      "l1Fee": "0x9ceaab0b43",
      "l1GasPrice": "0x4eeaed1be",
      "l1GasUsed": "0xb4c"
    },
    {
      "status": "0x1",
      "cumulativeGasUsed": "0x2a442",
      "logs": [],
      "logsBloom": "0x00000000000000000000000000000000000000000000000000000000000000000000000000000000000000000000000000000000000000000000000000000000000000000000000000000000000000000000000000000000000000000000000000000000000000000000000000000000000000000000000000000000000000000000000000000000000000000000000000000000000000000000000000000000000000000000000000000000000000000000000000000000000000000000000000000000000000000000000000000000000000000000000000000000000000000000000000000000000000000000000000000000000000000000000000000000",
      "type": "0x0",
      "transactionHash": "0x7136f0ab44002bdb45cae8b4a54348fe7bd86375cefd64e6a1421bbafab218b7",
      "transactionIndex": "0x5",
      "blockHash": "0xcf01bf3c01c700a2c72e7a05efd9b9d48351899e031a86cdc3e7066fc0c07b4d",
      "blockNumber": "0x15fe684",
      "gasUsed": "0x67fc",
      "effectiveGasPrice": "0xf433d",
      "from": "0xabebc6283d1b32298d67c745da88dad288a35c06",
      "to": "0xf03252ff2894637aefc003421b78e82e38b98087",
      "contractAddress": null,
      "l1BaseFeeScalar": "0x2af8",
      "l1BlobBaseFee": "0x1",
      "l1BlobBaseFeeScalar": "0x109618",
      "l1Fee": "0x9ceaab0b43",
      "l1GasPrice": "0x4eeaed1be",
      "l1GasUsed": "0xb4c"
    },
    {
      "status": "0x1",
      "cumulativeGasUsed": "0x30c5c",
      "logs": [],
      "logsBloom": "0x00000000000000000000000000000000000000000000000000000000000000000000000000000000000000000000000000000000000000000000000000000000000000000000000000000000000000000000000000000000000000000000000000000000000000000000000000000000000000000000000000000000000000000000000000000000000000000000000000000000000000000000000000000000000000000000000000000000000000000000000000000000000000000000000000000000000000000000000000000000000000000000000000000000000000000000000000000000000000000000000000000000000000000000000000000000",
      "type": "0x0",
      "transactionHash": "0xc3ecea52eebe6ee34dc21542ac6745f36484af96948c2f50c7a74c6337a24b17",
      "transactionIndex": "0x6",
      "blockHash": "0xcf01bf3c01c700a2c72e7a05efd9b9d48351899e031a86cdc3e7066fc0c07b4d",
      "blockNumber": "0x15fe684",
      "gasUsed": "0x681a",
      "effectiveGasPrice": "0xf433d",
      "from": "0xabebc6283d1b32298d67c745da88dad288a35c06",
      "to": "0xf03252ff2894637aefc003421b78e82e38b98087",
      "contractAddress": null,
      "l1BaseFeeScalar": "0x2af8",
      "l1BlobBaseFee": "0x1",
      "l1BlobBaseFeeScalar": "0x109618",
      "l1Fee": "0x9ceaab0b43",
      "l1GasPrice": "0x4eeaed1be",
      "l1GasUsed": "0xb4c"
    },
    {
      "status": "0x1",
      "cumulativeGasUsed": "0x37476",
      "logs": [],
      "logsBloom": "0x00000000000000000000000000000000000000000000000000000000000000000000000000000000000000000000000000000000000000000000000000000000000000000000000000000000000000000000000000000000000000000000000000000000000000000000000000000000000000000000000000000000000000000000000000000000000000000000000000000000000000000000000000000000000000000000000000000000000000000000000000000000000000000000000000000000000000000000000000000000000000000000000000000000000000000000000000000000000000000000000000000000000000000000000000000000",
      "type": "0x0",
      "transactionHash": "0xd12b2a3f892deecb38c656d848f6b3197b52013dddb489cc9a52b2d0099e790c",
      "transactionIndex": "0x7",
      "blockHash": "0xcf01bf3c01c700a2c72e7a05efd9b9d48351899e031a86cdc3e7066fc0c07b4d",
      "blockNumber": "0x15fe684",
      "gasUsed": "0x681a",
      "effectiveGasPrice": "0xf433d",
      "from": "0xabebc6283d1b32298d67c745da88dad288a35c06",
      "to": "0xf03252ff2894637aefc003421b78e82e38b98087",
      "contractAddress": null,
      "l1BaseFeeScalar": "0x2af8",
      "l1BlobBaseFee": "0x1",
      "l1BlobBaseFeeScalar": "0x109618",
      "l1Fee": "0x9ceaab0b43",
      "l1GasPrice": "0x4eeaed1be",
      "l1GasUsed": "0xb4c"
    },
    {
      "status": "0x1",
      "cumulativeGasUsed": "0x3dcae",
      "logs": [],
      "logsBloom": "0x00000000000000000000000000000000000000000000000000000000000000000000000000000000000000000000000000000000000000000000000000000000000000000000000000000000000000000000000000000000000000000000000000000000000000000000000000000000000000000000000000000000000000000000000000000000000000000000000000000000000000000000000000000000000000000000000000000000000000000000000000000000000000000000000000000000000000000000000000000000000000000000000000000000000000000000000000000000000000000000000000000000000000000000000000000000",
      "type": "0x0",
      "transactionHash": "0xaa7526aecbe7778e53e30db042917420bbf862664ee453466007af39ee6a2392",
      "transactionIndex": "0x8",
      "blockHash": "0xcf01bf3c01c700a2c72e7a05efd9b9d48351899e031a86cdc3e7066fc0c07b4d",
      "blockNumber": "0x15fe684",
      "gasUsed": "0x6838",
      "effectiveGasPrice": "0xf433d",
      "from": "0xabebc6283d1b32298d67c745da88dad288a35c06",
      "to": "0x69429d5a924225a5ed91920e7b396680d679dd2a",
      "contractAddress": null,
      "l1BaseFeeScalar": "0x2af8",
      "l1BlobBaseFee": "0x1",
      "l1BlobBaseFeeScalar": "0x109618",
      "l1Fee": "0x9ceaab0b43",
      "l1GasPrice": "0x4eeaed1be",
      "l1GasUsed": "0xb4c"
    },
    {
      "status": "0x1",
      "cumulativeGasUsed": "0x43db6",
      "logs": [],
      "logsBloom": "0x00000000000000000000000000000000000000000000000000000000000000000000000000000000000000000000000000000000000000000000000000000000000000000000000000000000000000000000000000000000000000000000000000000000000000000000000000000000000000000000000000000000000000000000000000000000000000000000000000000000000000000000000000000000000000000000000000000000000000000000000000000000000000000000000000000000000000000000000000000000000000000000000000000000000000000000000000000000000000000000000000000000000000000000000000000000",
      "type": "0x0",
      "transactionHash": "0xa66f04a85b0cee6f84989f20102a4661b5a7544b357030fb018e0d08d6dfabc3",
      "transactionIndex": "0x9",
      "blockHash": "0xcf01bf3c01c700a2c72e7a05efd9b9d48351899e031a86cdc3e7066fc0c07b4d",
      "blockNumber": "0x15fe684",
      "gasUsed": "0x6108",
      "effectiveGasPrice": "0xf433d",
      "from": "0xabebc6283d1b32298d67c745da88dad288a35c06",
      "to": "0x69429d5a924225a5ed91920e7b396680d679dd2a",
      "contractAddress": null,
      "l1BaseFeeScalar": "0x2af8",
      "l1BlobBaseFee": "0x1",
      "l1BlobBaseFeeScalar": "0x109618",
      "l1Fee": "0x766e1d7ce1",
      "l1GasPrice": "0x4eeaed1be",
      "l1GasUsed": "0x886"
    }
  ],
  "libraries": [],
  "pending": [],
  "returns": {},
  "timestamp": 1751437289,
  "chain": 4202,
  "commit": "73d266d"
}